{
  "_format": "hh-sol-artifact-1",
  "contractName": "PaintingMarketplace",
  "sourceName": "contracts/PaintingMarketplace.sol",
  "abi": [
    {
      "inputs": [],
      "stateMutability": "nonpayable",
      "type": "constructor"
    },
    {
      "anonymous": false,
      "inputs": [
        {
          "indexed": true,
          "internalType": "address",
          "name": "owner",
          "type": "address"
        },
        {
          "indexed": true,
          "internalType": "address",
          "name": "approved",
          "type": "address"
        },
        {
          "indexed": true,
          "internalType": "uint256",
          "name": "tokenId",
          "type": "uint256"
        }
      ],
      "name": "Approval",
      "type": "event"
    },
    {
      "anonymous": false,
      "inputs": [
        {
          "indexed": true,
          "internalType": "address",
          "name": "owner",
          "type": "address"
        },
        {
          "indexed": true,
          "internalType": "address",
          "name": "operator",
          "type": "address"
        },
        {
          "indexed": false,
          "internalType": "bool",
          "name": "approved",
          "type": "bool"
        }
      ],
      "name": "ApprovalForAll",
      "type": "event"
    },
    {
      "anonymous": false,
      "inputs": [
        {
          "indexed": false,
          "internalType": "uint256",
          "name": "tokenId",
          "type": "uint256"
        },
        {
          "indexed": false,
          "internalType": "address",
          "name": "owner",
          "type": "address"
        },
        {
          "indexed": false,
          "internalType": "address",
          "name": "seller",
          "type": "address"
        },
        {
          "indexed": false,
          "internalType": "string",
          "name": "name",
          "type": "string"
        },
        {
          "indexed": false,
          "internalType": "uint256",
          "name": "price",
          "type": "uint256"
        },
        {
          "indexed": false,
          "internalType": "bool",
          "name": "forSale",
          "type": "bool"
        }
      ],
      "name": "PaintingAdded",
      "type": "event"
    },
    {
      "anonymous": false,
      "inputs": [
        {
          "indexed": false,
          "internalType": "uint256",
          "name": "paintingId",
          "type": "uint256"
        },
        {
          "indexed": false,
          "internalType": "address",
          "name": "seller",
          "type": "address"
        },
        {
          "indexed": false,
          "internalType": "address",
          "name": "buyer",
          "type": "address"
        },
        {
          "indexed": false,
          "internalType": "uint256",
          "name": "price",
          "type": "uint256"
        }
      ],
      "name": "PaintingSold",
      "type": "event"
    },
    {
      "anonymous": false,
      "inputs": [
        {
          "indexed": true,
          "internalType": "address",
          "name": "from",
          "type": "address"
        },
        {
          "indexed": true,
          "internalType": "address",
          "name": "to",
          "type": "address"
        },
        {
          "indexed": true,
          "internalType": "uint256",
          "name": "tokenId",
          "type": "uint256"
        }
      ],
      "name": "Transfer",
      "type": "event"
    },
    {
      "inputs": [
        {
          "internalType": "address",
          "name": "to",
          "type": "address"
        },
        {
          "internalType": "uint256",
          "name": "tokenId",
          "type": "uint256"
        }
      ],
      "name": "approve",
      "outputs": [],
      "stateMutability": "nonpayable",
      "type": "function"
    },
    {
      "inputs": [
        {
          "internalType": "address",
          "name": "owner",
          "type": "address"
        }
      ],
      "name": "balanceOf",
      "outputs": [
        {
          "internalType": "uint256",
          "name": "",
          "type": "uint256"
        }
      ],
      "stateMutability": "view",
      "type": "function"
    },
    {
      "inputs": [
        {
          "internalType": "uint256",
          "name": "tokenId",
          "type": "uint256"
        }
      ],
      "name": "buyPainting",
      "outputs": [],
      "stateMutability": "payable",
      "type": "function"
    },
    {
      "inputs": [
        {
          "internalType": "string",
          "name": "name",
          "type": "string"
        },
        {
          "internalType": "string",
          "name": "tokenURI",
          "type": "string"
        },
        {
          "internalType": "uint256",
          "name": "price",
          "type": "uint256"
        }
      ],
      "name": "createTokenForPainting",
      "outputs": [
        {
          "internalType": "uint256",
          "name": "",
          "type": "uint256"
        }
      ],
      "stateMutability": "payable",
      "type": "function"
    },
    {
      "inputs": [],
      "name": "fetchListedPaintings",
      "outputs": [
        {
          "components": [
            {
              "internalType": "uint256",
              "name": "tokenId",
              "type": "uint256"
            },
            {
              "internalType": "address",
              "name": "seller",
              "type": "address"
            },
            {
              "internalType": "address",
              "name": "owner",
              "type": "address"
            },
            {
              "internalType": "string",
              "name": "name",
              "type": "string"
            },
            {
              "internalType": "uint256",
              "name": "price",
              "type": "uint256"
            },
            {
              "internalType": "bool",
              "name": "forSale",
              "type": "bool"
            }
          ],
          "internalType": "struct PaintingMarketplace.Painting[]",
          "name": "",
          "type": "tuple[]"
        }
      ],
      "stateMutability": "view",
      "type": "function"
    },
    {
      "inputs": [],
      "name": "fetchMyPaintingsNFTs",
      "outputs": [
        {
          "components": [
            {
              "internalType": "uint256",
              "name": "tokenId",
              "type": "uint256"
            },
            {
              "internalType": "address",
              "name": "seller",
              "type": "address"
            },
            {
              "internalType": "address",
              "name": "owner",
              "type": "address"
            },
            {
              "internalType": "string",
              "name": "name",
              "type": "string"
            },
            {
              "internalType": "uint256",
              "name": "price",
              "type": "uint256"
            },
            {
              "internalType": "bool",
              "name": "forSale",
              "type": "bool"
            }
          ],
          "internalType": "struct PaintingMarketplace.Painting[]",
          "name": "",
          "type": "tuple[]"
        }
      ],
      "stateMutability": "view",
      "type": "function"
    },
    {
      "inputs": [
        {
          "internalType": "uint256",
          "name": "tokenId",
          "type": "uint256"
        }
      ],
      "name": "getApproved",
      "outputs": [
        {
          "internalType": "address",
          "name": "",
          "type": "address"
        }
      ],
      "stateMutability": "view",
      "type": "function"
    },
    {
      "inputs": [],
      "name": "getPaintings",
      "outputs": [
        {
          "components": [
            {
              "internalType": "uint256",
              "name": "tokenId",
              "type": "uint256"
            },
            {
              "internalType": "address",
              "name": "seller",
              "type": "address"
            },
            {
              "internalType": "address",
              "name": "owner",
              "type": "address"
            },
            {
              "internalType": "string",
              "name": "name",
              "type": "string"
            },
            {
              "internalType": "uint256",
              "name": "price",
              "type": "uint256"
            },
            {
              "internalType": "bool",
              "name": "forSale",
              "type": "bool"
            }
          ],
          "internalType": "struct PaintingMarketplace.Painting[]",
          "name": "",
          "type": "tuple[]"
        }
      ],
      "stateMutability": "view",
      "type": "function"
    },
    {
      "inputs": [
        {
          "internalType": "address",
          "name": "owner",
          "type": "address"
        },
        {
          "internalType": "address",
          "name": "operator",
          "type": "address"
        }
      ],
      "name": "isApprovedForAll",
      "outputs": [
        {
          "internalType": "bool",
          "name": "",
          "type": "bool"
        }
      ],
      "stateMutability": "view",
      "type": "function"
    },
    {
      "inputs": [],
      "name": "name",
      "outputs": [
        {
          "internalType": "string",
          "name": "",
          "type": "string"
        }
      ],
      "stateMutability": "view",
      "type": "function"
    },
    {
      "inputs": [
        {
          "internalType": "uint256",
          "name": "tokenId",
          "type": "uint256"
        }
      ],
      "name": "ownerOf",
      "outputs": [
        {
          "internalType": "address",
          "name": "",
          "type": "address"
        }
      ],
      "stateMutability": "view",
      "type": "function"
    },
    {
      "inputs": [
        {
          "internalType": "uint256",
          "name": "",
          "type": "uint256"
        }
      ],
      "name": "paintings",
      "outputs": [
        {
          "internalType": "uint256",
          "name": "tokenId",
          "type": "uint256"
        },
        {
          "internalType": "address",
          "name": "seller",
          "type": "address"
        },
        {
          "internalType": "address",
          "name": "owner",
          "type": "address"
        },
        {
          "internalType": "string",
          "name": "name",
          "type": "string"
        },
        {
          "internalType": "uint256",
          "name": "price",
          "type": "uint256"
        },
        {
          "internalType": "bool",
          "name": "forSale",
          "type": "bool"
        }
      ],
      "stateMutability": "view",
      "type": "function"
    },
    {
      "inputs": [
        {
          "internalType": "uint256",
          "name": "tokenId",
          "type": "uint256"
        },
        {
          "internalType": "uint256",
          "name": "price",
          "type": "uint256"
        }
      ],
      "name": "resellPaintingToken",
      "outputs": [],
      "stateMutability": "payable",
      "type": "function"
    },
    {
      "inputs": [
        {
          "internalType": "address",
          "name": "from",
          "type": "address"
        },
        {
          "internalType": "address",
          "name": "to",
          "type": "address"
        },
        {
          "internalType": "uint256",
          "name": "tokenId",
          "type": "uint256"
        }
      ],
      "name": "safeTransferFrom",
      "outputs": [],
      "stateMutability": "nonpayable",
      "type": "function"
    },
    {
      "inputs": [
        {
          "internalType": "address",
          "name": "from",
          "type": "address"
        },
        {
          "internalType": "address",
          "name": "to",
          "type": "address"
        },
        {
          "internalType": "uint256",
          "name": "tokenId",
          "type": "uint256"
        },
        {
          "internalType": "bytes",
          "name": "data",
          "type": "bytes"
        }
      ],
      "name": "safeTransferFrom",
      "outputs": [],
      "stateMutability": "nonpayable",
      "type": "function"
    },
    {
      "inputs": [
        {
          "internalType": "address",
          "name": "operator",
          "type": "address"
        },
        {
          "internalType": "bool",
          "name": "approved",
          "type": "bool"
        }
      ],
      "name": "setApprovalForAll",
      "outputs": [],
      "stateMutability": "nonpayable",
      "type": "function"
    },
    {
      "inputs": [
        {
          "internalType": "bytes4",
          "name": "interfaceId",
          "type": "bytes4"
        }
      ],
      "name": "supportsInterface",
      "outputs": [
        {
          "internalType": "bool",
          "name": "",
          "type": "bool"
        }
      ],
      "stateMutability": "view",
      "type": "function"
    },
    {
      "inputs": [],
      "name": "symbol",
      "outputs": [
        {
          "internalType": "string",
          "name": "",
          "type": "string"
        }
      ],
      "stateMutability": "view",
      "type": "function"
    },
    {
      "inputs": [
        {
          "internalType": "uint256",
          "name": "tokenId",
          "type": "uint256"
        }
      ],
      "name": "tokenURI",
      "outputs": [
        {
          "internalType": "string",
          "name": "",
          "type": "string"
        }
      ],
      "stateMutability": "view",
      "type": "function"
    },
    {
      "inputs": [
        {
          "internalType": "address",
          "name": "from",
          "type": "address"
        },
        {
          "internalType": "address",
          "name": "to",
          "type": "address"
        },
        {
          "internalType": "uint256",
          "name": "tokenId",
          "type": "uint256"
        }
      ],
      "name": "transferFrom",
      "outputs": [],
      "stateMutability": "nonpayable",
      "type": "function"
    }
  ],
  "bytecode": "0x60806040523480156200001157600080fd5b506040518060400160405280600b81526020017f5061696e74696e674e46540000000000000000000000000000000000000000008152506040518060400160405280600481526020017f504e46540000000000000000000000000000000000000000000000000000000081525081600090816200008f919062000365565b508060019081620000a1919062000365565b50505033600960006101000a81548173ffffffffffffffffffffffffffffffffffffffff021916908373ffffffffffffffffffffffffffffffffffffffff1602179055506200044c565b600081519050919050565b7f4e487b7100000000000000000000000000000000000000000000000000000000600052604160045260246000fd5b7f4e487b7100000000000000000000000000000000000000000000000000000000600052602260045260246000fd5b600060028204905060018216806200016d57607f821691505b60208210810362000183576200018262000125565b5b50919050565b60008190508160005260206000209050919050565b60006020601f8301049050919050565b600082821b905092915050565b600060088302620001ed7fffffffffffffffffffffffffffffffffffffffffffffffffffffffffffffffff82620001ae565b620001f98683620001ae565b95508019841693508086168417925050509392505050565b6000819050919050565b6000819050919050565b600062000246620002406200023a8462000211565b6200021b565b62000211565b9050919050565b6000819050919050565b620002628362000225565b6200027a62000271826200024d565b848454620001bb565b825550505050565b600090565b6200029162000282565b6200029e81848462000257565b505050565b5b81811015620002c657620002ba60008262000287565b600181019050620002a4565b5050565b601f8211156200031557620002df8162000189565b620002ea846200019e565b81016020851015620002fa578190505b6200031262000309856200019e565b830182620002a3565b50505b505050565b600082821c905092915050565b60006200033a600019846008026200031a565b1980831691505092915050565b600062000355838362000327565b9150826002028217905092915050565b6200037082620000eb565b67ffffffffffffffff8111156200038c576200038b620000f6565b5b62000398825462000154565b620003a5828285620002ca565b600060209050601f831160018114620003dd5760008415620003c8578287015190505b620003d4858262000347565b86555062000444565b601f198416620003ed8662000189565b60005b828110156200041757848901518255600182019150602085019450602081019050620003f0565b8683101562000437578489015162000433601f89168262000327565b8355505b6001600288020188555050505b505050505050565b614598806200045c6000396000f3fe60806040526004361061011f5760003560e01c806395d89b41116100a0578063b88d4fde11610064578063b88d4fde146103d0578063c7ca6daa146103f9578063c87b56dd1461043b578063e985e9c514610478578063faf95622146104b55761011f565b806395d89b4114610305578063981e99ea1461033057806399eb596714610360578063a22cb4651461038b578063b2edb37e146103b45761011f565b80633084bb80116100e75780633084bb801461021b5780634122c5f71461023757806342842e0e146102625780636352211e1461028b57806370a08231146102c85761011f565b806301ffc9a71461012457806306fdde0314610161578063081812fc1461018c578063095ea7b3146101c957806323b872dd146101f2575b600080fd5b34801561013057600080fd5b5061014b60048036038101906101469190612e37565b6104e0565b6040516101589190612e7f565b60405180910390f35b34801561016d57600080fd5b506101766105c2565b6040516101839190612f2a565b60405180910390f35b34801561019857600080fd5b506101b360048036038101906101ae9190612f82565b610654565b6040516101c09190612ff0565b60405180910390f35b3480156101d557600080fd5b506101f060048036038101906101eb9190613037565b61069a565b005b3480156101fe57600080fd5b5061021960048036038101906102149190613077565b6107b1565b005b610235600480360381019061023091906130ca565b610811565b005b34801561024357600080fd5b5061024c6109c2565b60405161025991906132cc565b60405180910390f35b34801561026e57600080fd5b5061028960048036038101906102849190613077565b610d40565b005b34801561029757600080fd5b506102b260048036038101906102ad9190612f82565b610d60565b6040516102bf9190612ff0565b60405180910390f35b3480156102d457600080fd5b506102ef60048036038101906102ea91906132ee565b610de6565b6040516102fc919061332a565b60405180910390f35b34801561031157600080fd5b5061031a610e9d565b6040516103279190612f2a565b60405180910390f35b61034a6004803603810190610345919061347a565b610f2f565b604051610357919061332a565b60405180910390f35b34801561036c57600080fd5b50610375610f73565b60405161038291906132cc565b60405180910390f35b34801561039757600080fd5b506103b260048036038101906103ad9190613531565b61126d565b005b6103ce60048036038101906103c99190612f82565b611283565b005b3480156103dc57600080fd5b506103f760048036038101906103f29190613612565b611527565b005b34801561040557600080fd5b50610420600480360381019061041b9190612f82565b611589565b60405161043296959493929190613695565b60405180910390f35b34801561044757600080fd5b50610462600480360381019061045d9190612f82565b61169a565b60405161046f9190612f2a565b60405180910390f35b34801561048457600080fd5b5061049f600480360381019061049a91906136fd565b6117ac565b6040516104ac9190612e7f565b60405180910390f35b3480156104c157600080fd5b506104ca611840565b6040516104d791906132cc565b60405180910390f35b60007f80ac58cd000000000000000000000000000000000000000000000000000000007bffffffffffffffffffffffffffffffffffffffffffffffffffffffff1916827bffffffffffffffffffffffffffffffffffffffffffffffffffffffff191614806105ab57507f5b5e139f000000000000000000000000000000000000000000000000000000007bffffffffffffffffffffffffffffffffffffffffffffffffffffffff1916827bffffffffffffffffffffffffffffffffffffffffffffffffffffffff1916145b806105bb57506105ba82611bbe565b5b9050919050565b6060600080546105d19061376c565b80601f01602080910402602001604051908101604052809291908181526020018280546105fd9061376c565b801561064a5780601f1061061f5761010080835404028352916020019161064a565b820191906000526020600020905b81548152906001019060200180831161062d57829003601f168201915b5050505050905090565b600061065f82611c28565b6004600083815260200190815260200160002060009054906101000a900473ffffffffffffffffffffffffffffffffffffffff169050919050565b60006106a582610d60565b90508073ffffffffffffffffffffffffffffffffffffffff168373ffffffffffffffffffffffffffffffffffffffff1603610715576040517f08c379a000000000000000000000000000000000000000000000000000000000815260040161070c9061380f565b60405180910390fd5b8073ffffffffffffffffffffffffffffffffffffffff16610734611c73565b73ffffffffffffffffffffffffffffffffffffffff16148061076357506107628161075d611c73565b6117ac565b5b6107a2576040517f08c379a0000000000000000000000000000000000000000000000000000000008152600401610799906138a1565b60405180910390fd5b6107ac8383611c7b565b505050565b6107c26107bc611c73565b82611d34565b610801576040517f08c379a00000000000000000000000000000000000000000000000000000000081526004016107f890613933565b60405180910390fd5b61080c838383611dc9565b505050565b3373ffffffffffffffffffffffffffffffffffffffff16600a600084815260200190815260200160002060020160009054906101000a900473ffffffffffffffffffffffffffffffffffffffff1673ffffffffffffffffffffffffffffffffffffffff16146108b5576040517f08c379a00000000000000000000000000000000000000000000000000000000081526004016108ac906139c5565b60405180910390fd5b6001600a600084815260200190815260200160002060050160006101000a81548160ff02191690831515021790555080600a60008481526020019081526020016000206004018190555033600a600084815260200190815260200160002060010160006101000a81548173ffffffffffffffffffffffffffffffffffffffff021916908373ffffffffffffffffffffffffffffffffffffffff16021790555030600a600084815260200190815260200160002060020160006101000a81548173ffffffffffffffffffffffffffffffffffffffff021916908373ffffffffffffffffffffffffffffffffffffffff1602179055506109b360086120c2565b6109be333084611dc9565b5050565b606060006109d0600761211e565b905060008060005b83811015610a78573373ffffffffffffffffffffffffffffffffffffffff16600a6000600184610a089190613a14565b815260200190815260200160002060010160009054906101000a900473ffffffffffffffffffffffffffffffffffffffff1673ffffffffffffffffffffffffffffffffffffffff1603610a6557600183610a629190613a14565b92505b8080610a7090613a48565b9150506109d8565b5060008267ffffffffffffffff811115610a9557610a9461334f565b5b604051908082528060200260200182016040528015610ace57816020015b610abb612d67565b815260200190600190039081610ab35790505b50905060005b84811015610d35573373ffffffffffffffffffffffffffffffffffffffff16600a6000600184610b049190613a14565b815260200190815260200160002060010160009054906101000a900473ffffffffffffffffffffffffffffffffffffffff1673ffffffffffffffffffffffffffffffffffffffff1603610d22576000600182610b609190613a14565b90506000600a60008381526020019081526020016000209050806040518060c0016040529081600082015481526020016001820160009054906101000a900473ffffffffffffffffffffffffffffffffffffffff1673ffffffffffffffffffffffffffffffffffffffff1673ffffffffffffffffffffffffffffffffffffffff1681526020016002820160009054906101000a900473ffffffffffffffffffffffffffffffffffffffff1673ffffffffffffffffffffffffffffffffffffffff1673ffffffffffffffffffffffffffffffffffffffff168152602001600382018054610c4b9061376c565b80601f0160208091040260200160405190810160405280929190818152602001828054610c779061376c565b8015610cc45780601f10610c9957610100808354040283529160200191610cc4565b820191906000526020600020905b815481529060010190602001808311610ca757829003601f168201915b50505050508152602001600482015481526020016005820160009054906101000a900460ff161515151581525050848681518110610d0557610d04613a90565b5b6020026020010181905250600185610d1d9190613a14565b945050505b8080610d2d90613a48565b915050610ad4565b508094505050505090565b610d5b83838360405180602001604052806000815250611527565b505050565b600080610d6c8361212c565b9050600073ffffffffffffffffffffffffffffffffffffffff168173ffffffffffffffffffffffffffffffffffffffff1603610ddd576040517f08c379a0000000000000000000000000000000000000000000000000000000008152600401610dd490613b0b565b60405180910390fd5b80915050919050565b60008073ffffffffffffffffffffffffffffffffffffffff168273ffffffffffffffffffffffffffffffffffffffff1603610e56576040517f08c379a0000000000000000000000000000000000000000000000000000000008152600401610e4d90613b9d565b60405180910390fd5b600360008373ffffffffffffffffffffffffffffffffffffffff1673ffffffffffffffffffffffffffffffffffffffff168152602001908152602001600020549050919050565b606060018054610eac9061376c565b80601f0160208091040260200160405190810160405280929190818152602001828054610ed89061376c565b8015610f255780601f10610efa57610100808354040283529160200191610f25565b820191906000526020600020905b815481529060010190602001808311610f0857829003601f168201915b5050505050905090565b6000610f3b6007612169565b6000610f47600761211e565b9050610f53338261217f565b610f5d818561239c565b610f68858285612409565b809150509392505050565b60606000610f81600761211e565b90506000610f8f600861211e565b610f99600761211e565b610fa39190613bbd565b90506000808267ffffffffffffffff811115610fc257610fc161334f565b5b604051908082528060200260200182016040528015610ffb57816020015b610fe8612d67565b815260200190600190039081610fe05790505b50905060005b84811015611262573073ffffffffffffffffffffffffffffffffffffffff16600a60006001846110319190613a14565b815260200190815260200160002060020160009054906101000a900473ffffffffffffffffffffffffffffffffffffffff1673ffffffffffffffffffffffffffffffffffffffff160361124f57600060018261108d9190613a14565b90506000600a60008381526020019081526020016000209050806040518060c0016040529081600082015481526020016001820160009054906101000a900473ffffffffffffffffffffffffffffffffffffffff1673ffffffffffffffffffffffffffffffffffffffff1673ffffffffffffffffffffffffffffffffffffffff1681526020016002820160009054906101000a900473ffffffffffffffffffffffffffffffffffffffff1673ffffffffffffffffffffffffffffffffffffffff1673ffffffffffffffffffffffffffffffffffffffff1681526020016003820180546111789061376c565b80601f01602080910402602001604051908101604052809291908181526020018280546111a49061376c565b80156111f15780601f106111c6576101008083540402835291602001916111f1565b820191906000526020600020905b8154815290600101906020018083116111d457829003601f168201915b50505050508152602001600482015481526020016005820160009054906101000a900460ff16151515158152505084868151811061123257611231613a90565b5b602002602001018190525060018561124a9190613a14565b945050505b808061125a90613a48565b915050611001565b508094505050505090565b61127f611278611c73565b83836125e8565b5050565b6000600a6000838152602001908152602001600020600401549050600a600083815260200190815260200160002060050160009054906101000a900460ff16611301576040517f08c379a00000000000000000000000000000000000000000000000000000000081526004016112f890613c3d565b60405180910390fd5b80341015611344576040517f08c379a000000000000000000000000000000000000000000000000000000000815260040161133b90613ca9565b60405180910390fd5b33600a600084815260200190815260200160002060020160006101000a81548173ffffffffffffffffffffffffffffffffffffffff021916908373ffffffffffffffffffffffffffffffffffffffff1602179055506000600a600084815260200190815260200160002060010160006101000a81548173ffffffffffffffffffffffffffffffffffffffff021916908373ffffffffffffffffffffffffffffffffffffffff1602179055506000600a600084815260200190815260200160002060050160006101000a81548160ff0219169083151502179055506114286008612169565b611433303384611dc9565b600a600083815260200190815260200160002060010160009054906101000a900473ffffffffffffffffffffffffffffffffffffffff1673ffffffffffffffffffffffffffffffffffffffff166108fc349081150290604051600060405180830381858888f193505050501580156114af573d6000803e3d6000fd5b507fff01da81a5bae71a80e3ffdfd726c7d8696d2e529e720d3cd2aa857c2a57445e82600a600085815260200190815260200160002060010160009054906101000a900473ffffffffffffffffffffffffffffffffffffffff16333460405161151b9493929190613cc9565b60405180910390a15050565b611538611532611c73565b83611d34565b611577576040517f08c379a000000000000000000000000000000000000000000000000000000000815260040161156e90613933565b60405180910390fd5b61158384848484612754565b50505050565b600a6020528060005260406000206000915090508060000154908060010160009054906101000a900473ffffffffffffffffffffffffffffffffffffffff16908060020160009054906101000a900473ffffffffffffffffffffffffffffffffffffffff16908060030180546115fe9061376c565b80601f016020809104026020016040519081016040528092919081815260200182805461162a9061376c565b80156116775780601f1061164c57610100808354040283529160200191611677565b820191906000526020600020905b81548152906001019060200180831161165a57829003601f168201915b5050505050908060040154908060050160009054906101000a900460ff16905086565b60606116a582611c28565b60006006600084815260200190815260200160002080546116c59061376c565b80601f01602080910402602001604051908101604052809291908181526020018280546116f19061376c565b801561173e5780601f106117135761010080835404028352916020019161173e565b820191906000526020600020905b81548152906001019060200180831161172157829003601f168201915b50505050509050600061174f6127b0565b905060008151036117645781925050506117a7565b600082511115611799578082604051602001611781929190613d4a565b604051602081830303815290604052925050506117a7565b6117a2846127c7565b925050505b919050565b6000600560008473ffffffffffffffffffffffffffffffffffffffff1673ffffffffffffffffffffffffffffffffffffffff16815260200190815260200160002060008373ffffffffffffffffffffffffffffffffffffffff1673ffffffffffffffffffffffffffffffffffffffff16815260200190815260200160002060009054906101000a900460ff16905092915050565b6060600061184e600761211e565b905060008060005b838110156118f6573373ffffffffffffffffffffffffffffffffffffffff16600a60006001846118869190613a14565b815260200190815260200160002060020160009054906101000a900473ffffffffffffffffffffffffffffffffffffffff1673ffffffffffffffffffffffffffffffffffffffff16036118e3576001836118e09190613a14565b92505b80806118ee90613a48565b915050611856565b5060008267ffffffffffffffff8111156119135761191261334f565b5b60405190808252806020026020018201604052801561194c57816020015b611939612d67565b8152602001906001900390816119315790505b50905060005b84811015611bb3573373ffffffffffffffffffffffffffffffffffffffff16600a60006001846119829190613a14565b815260200190815260200160002060020160009054906101000a900473ffffffffffffffffffffffffffffffffffffffff1673ffffffffffffffffffffffffffffffffffffffff1603611ba05760006001826119de9190613a14565b90506000600a60008381526020019081526020016000209050806040518060c0016040529081600082015481526020016001820160009054906101000a900473ffffffffffffffffffffffffffffffffffffffff1673ffffffffffffffffffffffffffffffffffffffff1673ffffffffffffffffffffffffffffffffffffffff1681526020016002820160009054906101000a900473ffffffffffffffffffffffffffffffffffffffff1673ffffffffffffffffffffffffffffffffffffffff1673ffffffffffffffffffffffffffffffffffffffff168152602001600382018054611ac99061376c565b80601f0160208091040260200160405190810160405280929190818152602001828054611af59061376c565b8015611b425780601f10611b1757610100808354040283529160200191611b42565b820191906000526020600020905b815481529060010190602001808311611b2557829003601f168201915b50505050508152602001600482015481526020016005820160009054906101000a900460ff161515151581525050848681518110611b8357611b82613a90565b5b6020026020010181905250600185611b9b9190613a14565b945050505b8080611bab90613a48565b915050611952565b508094505050505090565b60007f01ffc9a7000000000000000000000000000000000000000000000000000000007bffffffffffffffffffffffffffffffffffffffffffffffffffffffff1916827bffffffffffffffffffffffffffffffffffffffffffffffffffffffff1916149050919050565b611c318161282f565b611c70576040517f08c379a0000000000000000000000000000000000000000000000000000000008152600401611c6790613b0b565b60405180910390fd5b50565b600033905090565b816004600083815260200190815260200160002060006101000a81548173ffffffffffffffffffffffffffffffffffffffff021916908373ffffffffffffffffffffffffffffffffffffffff160217905550808273ffffffffffffffffffffffffffffffffffffffff16611cee83610d60565b73ffffffffffffffffffffffffffffffffffffffff167f8c5be1e5ebec7d5bd14f71427d1e84f3dd0314c0f7b2291e5b200ac8c7c3b92560405160405180910390a45050565b600080611d4083610d60565b90508073ffffffffffffffffffffffffffffffffffffffff168473ffffffffffffffffffffffffffffffffffffffff161480611d825750611d8181856117ac565b5b80611dc057508373ffffffffffffffffffffffffffffffffffffffff16611da884610654565b73ffffffffffffffffffffffffffffffffffffffff16145b91505092915050565b8273ffffffffffffffffffffffffffffffffffffffff16611de982610d60565b73ffffffffffffffffffffffffffffffffffffffff1614611e3f576040517f08c379a0000000000000000000000000000000000000000000000000000000008152600401611e3690613de0565b60405180910390fd5b600073ffffffffffffffffffffffffffffffffffffffff168273ffffffffffffffffffffffffffffffffffffffff1603611eae576040517f08c379a0000000000000000000000000000000000000000000000000000000008152600401611ea590613e72565b60405180910390fd5b611ebb8383836001612870565b8273ffffffffffffffffffffffffffffffffffffffff16611edb82610d60565b73ffffffffffffffffffffffffffffffffffffffff1614611f31576040517f08c379a0000000000000000000000000000000000000000000000000000000008152600401611f2890613de0565b60405180910390fd5b6004600082815260200190815260200160002060006101000a81549073ffffffffffffffffffffffffffffffffffffffff02191690556001600360008573ffffffffffffffffffffffffffffffffffffffff1673ffffffffffffffffffffffffffffffffffffffff168152602001908152602001600020600082825403925050819055506001600360008473ffffffffffffffffffffffffffffffffffffffff1673ffffffffffffffffffffffffffffffffffffffff16815260200190815260200160002060008282540192505081905550816002600083815260200190815260200160002060006101000a81548173ffffffffffffffffffffffffffffffffffffffff021916908373ffffffffffffffffffffffffffffffffffffffff160217905550808273ffffffffffffffffffffffffffffffffffffffff168473ffffffffffffffffffffffffffffffffffffffff167fddf252ad1be2c89b69c2b068fc378daa952ba7f163c4a11628f55a4df523b3ef60405160405180910390a46120bd8383836001612996565b505050565b6000816000015490506000811161210e576040517f08c379a000000000000000000000000000000000000000000000000000000000815260040161210590613ede565b60405180910390fd5b6001810382600001819055505050565b600081600001549050919050565b60006002600083815260200190815260200160002060009054906101000a900473ffffffffffffffffffffffffffffffffffffffff169050919050565b6001816000016000828254019250508190555050565b600073ffffffffffffffffffffffffffffffffffffffff168273ffffffffffffffffffffffffffffffffffffffff16036121ee576040517f08c379a00000000000000000000000000000000000000000000000000000000081526004016121e590613f4a565b60405180910390fd5b6121f78161282f565b15612237576040517f08c379a000000000000000000000000000000000000000000000000000000000815260040161222e90613fb6565b60405180910390fd5b612245600083836001612870565b61224e8161282f565b1561228e576040517f08c379a000000000000000000000000000000000000000000000000000000000815260040161228590613fb6565b60405180910390fd5b6001600360008473ffffffffffffffffffffffffffffffffffffffff1673ffffffffffffffffffffffffffffffffffffffff16815260200190815260200160002060008282540192505081905550816002600083815260200190815260200160002060006101000a81548173ffffffffffffffffffffffffffffffffffffffff021916908373ffffffffffffffffffffffffffffffffffffffff160217905550808273ffffffffffffffffffffffffffffffffffffffff16600073ffffffffffffffffffffffffffffffffffffffff167fddf252ad1be2c89b69c2b068fc378daa952ba7f163c4a11628f55a4df523b3ef60405160405180910390a4612398600083836001612996565b5050565b6123a58261282f565b6123e4576040517f08c379a00000000000000000000000000000000000000000000000000000000081526004016123db90614048565b60405180910390fd5b806006600084815260200190815260200160002090816124049190614214565b505050565b6000811161244c576040517f08c379a000000000000000000000000000000000000000000000000000000000815260040161244390614332565b60405180910390fd5b6040518060c001604052808381526020013373ffffffffffffffffffffffffffffffffffffffff1681526020013073ffffffffffffffffffffffffffffffffffffffff16815260200184815260200182815260200160011515815250600a60008481526020019081526020016000206000820151816000015560208201518160010160006101000a81548173ffffffffffffffffffffffffffffffffffffffff021916908373ffffffffffffffffffffffffffffffffffffffff16021790555060408201518160020160006101000a81548173ffffffffffffffffffffffffffffffffffffffff021916908373ffffffffffffffffffffffffffffffffffffffff16021790555060608201518160030190816125689190614214565b506080820151816004015560a08201518160050160006101000a81548160ff0219169083151502179055509050506125a1333084611dc9565b7f6aeddfc3c3088327bea052c6e6473db2cfdcda0fe759a822e3d66de2c7f9c877823033868560016040516125db96959493929190613695565b60405180910390a1505050565b8173ffffffffffffffffffffffffffffffffffffffff168373ffffffffffffffffffffffffffffffffffffffff1603612656576040517f08c379a000000000000000000000000000000000000000000000000000000000815260040161264d9061439e565b60405180910390fd5b80600560008573ffffffffffffffffffffffffffffffffffffffff1673ffffffffffffffffffffffffffffffffffffffff16815260200190815260200160002060008473ffffffffffffffffffffffffffffffffffffffff1673ffffffffffffffffffffffffffffffffffffffff16815260200190815260200160002060006101000a81548160ff0219169083151502179055508173ffffffffffffffffffffffffffffffffffffffff168373ffffffffffffffffffffffffffffffffffffffff167f17307eab39ab6107e8899845ad3d59bd9653f200f220920489ca2b5937696c31836040516127479190612e7f565b60405180910390a3505050565b61275f848484611dc9565b61276b8484848461299c565b6127aa576040517f08c379a00000000000000000000000000000000000000000000000000000000081526004016127a190614430565b60405180910390fd5b50505050565b606060405180602001604052806000815250905090565b60606127d282611c28565b60006127dc6127b0565b905060008151116127fc5760405180602001604052806000815250612827565b8061280684612b23565b604051602001612817929190613d4a565b6040516020818303038152906040525b915050919050565b60008073ffffffffffffffffffffffffffffffffffffffff166128518361212c565b73ffffffffffffffffffffffffffffffffffffffff1614159050919050565b600181111561299057600073ffffffffffffffffffffffffffffffffffffffff168473ffffffffffffffffffffffffffffffffffffffff16146129045780600360008673ffffffffffffffffffffffffffffffffffffffff1673ffffffffffffffffffffffffffffffffffffffff16815260200190815260200160002060008282546128fc9190613bbd565b925050819055505b600073ffffffffffffffffffffffffffffffffffffffff168373ffffffffffffffffffffffffffffffffffffffff161461298f5780600360008573ffffffffffffffffffffffffffffffffffffffff1673ffffffffffffffffffffffffffffffffffffffff16815260200190815260200160002060008282546129879190613a14565b925050819055505b5b50505050565b50505050565b60006129bd8473ffffffffffffffffffffffffffffffffffffffff16612bf1565b15612b16578373ffffffffffffffffffffffffffffffffffffffff1663150b7a026129e6611c73565b8786866040518563ffffffff1660e01b8152600401612a0894939291906144a5565b6020604051808303816000875af1925050508015612a4457506040513d601f19601f82011682018060405250810190612a419190614506565b60015b612ac6573d8060008114612a74576040519150601f19603f3d011682016040523d82523d6000602084013e612a79565b606091505b506000815103612abe576040517f08c379a0000000000000000000000000000000000000000000000000000000008152600401612ab590614430565b60405180910390fd5b805181602001fd5b63150b7a0260e01b7bffffffffffffffffffffffffffffffffffffffffffffffffffffffff1916817bffffffffffffffffffffffffffffffffffffffffffffffffffffffff191614915050612b1b565b600190505b949350505050565b606060006001612b3284612c14565b01905060008167ffffffffffffffff811115612b5157612b5061334f565b5b6040519080825280601f01601f191660200182016040528015612b835781602001600182028036833780820191505090505b509050600082602001820190505b600115612be6578080600190039150507f3031323334353637383961626364656600000000000000000000000000000000600a86061a8153600a8581612bda57612bd9614533565b5b04945060008503612b91575b819350505050919050565b6000808273ffffffffffffffffffffffffffffffffffffffff163b119050919050565b600080600090507a184f03e93ff9f4daa797ed6e38ed64bf6a1f0100000000000000008310612c72577a184f03e93ff9f4daa797ed6e38ed64bf6a1f0100000000000000008381612c6857612c67614533565b5b0492506040810190505b6d04ee2d6d415b85acef81000000008310612caf576d04ee2d6d415b85acef81000000008381612ca557612ca4614533565b5b0492506020810190505b662386f26fc100008310612cde57662386f26fc100008381612cd457612cd3614533565b5b0492506010810190505b6305f5e1008310612d07576305f5e1008381612cfd57612cfc614533565b5b0492506008810190505b6127108310612d2c576127108381612d2257612d21614533565b5b0492506004810190505b60648310612d4f5760648381612d4557612d44614533565b5b0492506002810190505b600a8310612d5e576001810190505b80915050919050565b6040518060c0016040528060008152602001600073ffffffffffffffffffffffffffffffffffffffff168152602001600073ffffffffffffffffffffffffffffffffffffffff16815260200160608152602001600081526020016000151581525090565b6000604051905090565b600080fd5b600080fd5b60007fffffffff0000000000000000000000000000000000000000000000000000000082169050919050565b612e1481612ddf565b8114612e1f57600080fd5b50565b600081359050612e3181612e0b565b92915050565b600060208284031215612e4d57612e4c612dd5565b5b6000612e5b84828501612e22565b91505092915050565b60008115159050919050565b612e7981612e64565b82525050565b6000602082019050612e946000830184612e70565b92915050565b600081519050919050565b600082825260208201905092915050565b60005b83811015612ed4578082015181840152602081019050612eb9565b60008484015250505050565b6000601f19601f8301169050919050565b6000612efc82612e9a565b612f068185612ea5565b9350612f16818560208601612eb6565b612f1f81612ee0565b840191505092915050565b60006020820190508181036000830152612f448184612ef1565b905092915050565b6000819050919050565b612f5f81612f4c565b8114612f6a57600080fd5b50565b600081359050612f7c81612f56565b92915050565b600060208284031215612f9857612f97612dd5565b5b6000612fa684828501612f6d565b91505092915050565b600073ffffffffffffffffffffffffffffffffffffffff82169050919050565b6000612fda82612faf565b9050919050565b612fea81612fcf565b82525050565b60006020820190506130056000830184612fe1565b92915050565b61301481612fcf565b811461301f57600080fd5b50565b6000813590506130318161300b565b92915050565b6000806040838503121561304e5761304d612dd5565b5b600061305c85828601613022565b925050602061306d85828601612f6d565b9150509250929050565b6000806000606084860312156130905761308f612dd5565b5b600061309e86828701613022565b93505060206130af86828701613022565b92505060406130c086828701612f6d565b9150509250925092565b600080604083850312156130e1576130e0612dd5565b5b60006130ef85828601612f6d565b925050602061310085828601612f6d565b9150509250929050565b600081519050919050565b600082825260208201905092915050565b6000819050602082019050919050565b61313f81612f4c565b82525050565b61314e81612fcf565b82525050565b600082825260208201905092915050565b600061317082612e9a565b61317a8185613154565b935061318a818560208601612eb6565b61319381612ee0565b840191505092915050565b6131a781612e64565b82525050565b600060c0830160008301516131c56000860182613136565b5060208301516131d86020860182613145565b5060408301516131eb6040860182613145565b50606083015184820360608601526132038282613165565b91505060808301516132186080860182613136565b5060a083015161322b60a086018261319e565b508091505092915050565b600061324283836131ad565b905092915050565b6000602082019050919050565b60006132628261310a565b61326c8185613115565b93508360208202850161327e85613126565b8060005b858110156132ba578484038952815161329b8582613236565b94506132a68361324a565b925060208a01995050600181019050613282565b50829750879550505050505092915050565b600060208201905081810360008301526132e68184613257565b905092915050565b60006020828403121561330457613303612dd5565b5b600061331284828501613022565b91505092915050565b61332481612f4c565b82525050565b600060208201905061333f600083018461331b565b92915050565b600080fd5b600080fd5b7f4e487b7100000000000000000000000000000000000000000000000000000000600052604160045260246000fd5b61338782612ee0565b810181811067ffffffffffffffff821117156133a6576133a561334f565b5b80604052505050565b60006133b9612dcb565b90506133c5828261337e565b919050565b600067ffffffffffffffff8211156133e5576133e461334f565b5b6133ee82612ee0565b9050602081019050919050565b82818337600083830152505050565b600061341d613418846133ca565b6133af565b9050828152602081018484840111156134395761343861334a565b5b6134448482856133fb565b509392505050565b600082601f83011261346157613460613345565b5b813561347184826020860161340a565b91505092915050565b60008060006060848603121561349357613492612dd5565b5b600084013567ffffffffffffffff8111156134b1576134b0612dda565b5b6134bd8682870161344c565b935050602084013567ffffffffffffffff8111156134de576134dd612dda565b5b6134ea8682870161344c565b92505060406134fb86828701612f6d565b9150509250925092565b61350e81612e64565b811461351957600080fd5b50565b60008135905061352b81613505565b92915050565b6000806040838503121561354857613547612dd5565b5b600061355685828601613022565b92505060206135678582860161351c565b9150509250929050565b600067ffffffffffffffff82111561358c5761358b61334f565b5b61359582612ee0565b9050602081019050919050565b60006135b56135b084613571565b6133af565b9050828152602081018484840111156135d1576135d061334a565b5b6135dc8482856133fb565b509392505050565b600082601f8301126135f9576135f8613345565b5b81356136098482602086016135a2565b91505092915050565b6000806000806080858703121561362c5761362b612dd5565b5b600061363a87828801613022565b945050602061364b87828801613022565b935050604061365c87828801612f6d565b925050606085013567ffffffffffffffff81111561367d5761367c612dda565b5b613689878288016135e4565b91505092959194509250565b600060c0820190506136aa600083018961331b565b6136b76020830188612fe1565b6136c46040830187612fe1565b81810360608301526136d68186612ef1565b90506136e5608083018561331b565b6136f260a0830184612e70565b979650505050505050565b6000806040838503121561371457613713612dd5565b5b600061372285828601613022565b925050602061373385828601613022565b9150509250929050565b7f4e487b7100000000000000000000000000000000000000000000000000000000600052602260045260246000fd5b6000600282049050600182168061378457607f821691505b6020821081036137975761379661373d565b5b50919050565b7f4552433732313a20617070726f76616c20746f2063757272656e74206f776e6560008201527f7200000000000000000000000000000000000000000000000000000000000000602082015250565b60006137f9602183612ea5565b91506138048261379d565b604082019050919050565b60006020820190508181036000830152613828816137ec565b9050919050565b7f4552433732313a20617070726f76652063616c6c6572206973206e6f7420746f60008201527f6b656e206f776e6572206f7220617070726f76656420666f7220616c6c000000602082015250565b600061388b603d83612ea5565b91506138968261382f565b604082019050919050565b600060208201905081810360008301526138ba8161387e565b9050919050565b7f4552433732313a2063616c6c6572206973206e6f7420746f6b656e206f776e6560008201527f72206f7220617070726f76656400000000000000000000000000000000000000602082015250565b600061391d602d83612ea5565b9150613928826138c1565b604082019050919050565b6000602082019050818103600083015261394c81613910565b9050919050565b7f4f6e6c79206974656d206f776e65722063616e20706572666f726d207468697360008201527f206f7065726174696f6e00000000000000000000000000000000000000000000602082015250565b60006139af602a83612ea5565b91506139ba82613953565b604082019050919050565b600060208201905081810360008301526139de816139a2565b9050919050565b7f4e487b7100000000000000000000000000000000000000000000000000000000600052601160045260246000fd5b6000613a1f82612f4c565b9150613a2a83612f4c565b9250828201905080821115613a4257613a416139e5565b5b92915050565b6000613a5382612f4c565b91507fffffffffffffffffffffffffffffffffffffffffffffffffffffffffffffffff8203613a8557613a846139e5565b5b600182019050919050565b7f4e487b7100000000000000000000000000000000000000000000000000000000600052603260045260246000fd5b7f4552433732313a20696e76616c696420746f6b656e2049440000000000000000600082015250565b6000613af5601883612ea5565b9150613b0082613abf565b602082019050919050565b60006020820190508181036000830152613b2481613ae8565b9050919050565b7f4552433732313a2061646472657373207a65726f206973206e6f74206120766160008201527f6c6964206f776e65720000000000000000000000000000000000000000000000602082015250565b6000613b87602983612ea5565b9150613b9282613b2b565b604082019050919050565b60006020820190508181036000830152613bb681613b7a565b9050919050565b6000613bc882612f4c565b9150613bd383612f4c565b9250828203905081811115613beb57613bea6139e5565b5b92915050565b7f5061696e74696e67206d75737420626520666f722073616c6500000000000000600082015250565b6000613c27601983612ea5565b9150613c3282613bf1565b602082019050919050565b60006020820190508181036000830152613c5681613c1a565b9050919050565b7f496e73756666696369656e742066756e64730000000000000000000000000000600082015250565b6000613c93601283612ea5565b9150613c9e82613c5d565b602082019050919050565b60006020820190508181036000830152613cc281613c86565b9050919050565b6000608082019050613cde600083018761331b565b613ceb6020830186612fe1565b613cf86040830185612fe1565b613d05606083018461331b565b95945050505050565b600081905092915050565b6000613d2482612e9a565b613d2e8185613d0e565b9350613d3e818560208601612eb6565b80840191505092915050565b6000613d568285613d19565b9150613d628284613d19565b91508190509392505050565b7f4552433732313a207472616e736665722066726f6d20696e636f72726563742060008201527f6f776e6572000000000000000000000000000000000000000000000000000000602082015250565b6000613dca602583612ea5565b9150613dd582613d6e565b604082019050919050565b60006020820190508181036000830152613df981613dbd565b9050919050565b7f4552433732313a207472616e7366657220746f20746865207a65726f2061646460008201527f7265737300000000000000000000000000000000000000000000000000000000602082015250565b6000613e5c602483612ea5565b9150613e6782613e00565b604082019050919050565b60006020820190508181036000830152613e8b81613e4f565b9050919050565b7f436f756e7465723a2064656372656d656e74206f766572666c6f770000000000600082015250565b6000613ec8601b83612ea5565b9150613ed382613e92565b602082019050919050565b60006020820190508181036000830152613ef781613ebb565b9050919050565b7f4552433732313a206d696e7420746f20746865207a65726f2061646472657373600082015250565b6000613f34602083612ea5565b9150613f3f82613efe565b602082019050919050565b60006020820190508181036000830152613f6381613f27565b9050919050565b7f4552433732313a20746f6b656e20616c7265616479206d696e74656400000000600082015250565b6000613fa0601c83612ea5565b9150613fab82613f6a565b602082019050919050565b60006020820190508181036000830152613fcf81613f93565b9050919050565b7f45524337323155524953746f726167653a2055524920736574206f66206e6f6e60008201527f6578697374656e7420746f6b656e000000000000000000000000000000000000602082015250565b6000614032602e83612ea5565b915061403d82613fd6565b604082019050919050565b6000602082019050818103600083015261406181614025565b9050919050565b60008190508160005260206000209050919050565b60006020601f8301049050919050565b600082821b905092915050565b6000600883026140ca7fffffffffffffffffffffffffffffffffffffffffffffffffffffffffffffffff8261408d565b6140d4868361408d565b95508019841693508086168417925050509392505050565b6000819050919050565b600061411161410c61410784612f4c565b6140ec565b612f4c565b9050919050565b6000819050919050565b61412b836140f6565b61413f61413782614118565b84845461409a565b825550505050565b600090565b614154614147565b61415f818484614122565b505050565b5b818110156141835761417860008261414c565b600181019050614165565b5050565b601f8211156141c85761419981614068565b6141a28461407d565b810160208510156141b1578190505b6141c56141bd8561407d565b830182614164565b50505b505050565b600082821c905092915050565b60006141eb600019846008026141cd565b1980831691505092915050565b600061420483836141da565b9150826002028217905092915050565b61421d82612e9a565b67ffffffffffffffff8111156142365761423561334f565b5b614240825461376c565b61424b828285614187565b600060209050601f83116001811461427e576000841561426c578287015190505b61427685826141f8565b8655506142de565b601f19841661428c86614068565b60005b828110156142b45784890151825560018201915060208501945060208101905061428f565b868310156142d157848901516142cd601f8916826141da565b8355505b6001600288020188555050505b505050505050565b7f5072696365206d757374206265206174206c6561737420312077656900000000600082015250565b600061431c601c83612ea5565b9150614327826142e6565b602082019050919050565b6000602082019050818103600083015261434b8161430f565b9050919050565b7f4552433732313a20617070726f766520746f2063616c6c657200000000000000600082015250565b6000614388601983612ea5565b915061439382614352565b602082019050919050565b600060208201905081810360008301526143b78161437b565b9050919050565b7f4552433732313a207472616e7366657220746f206e6f6e20455243373231526560008201527f63656976657220696d706c656d656e7465720000000000000000000000000000602082015250565b600061441a603283612ea5565b9150614425826143be565b604082019050919050565b600060208201905081810360008301526144498161440d565b9050919050565b600081519050919050565b600082825260208201905092915050565b600061447782614450565b614481818561445b565b9350614491818560208601612eb6565b61449a81612ee0565b840191505092915050565b60006080820190506144ba6000830187612fe1565b6144c76020830186612fe1565b6144d4604083018561331b565b81810360608301526144e6818461446c565b905095945050505050565b60008151905061450081612e0b565b92915050565b60006020828403121561451c5761451b612dd5565b5b600061452a848285016144f1565b91505092915050565b7f4e487b7100000000000000000000000000000000000000000000000000000000600052601260045260246000fdfea2646970667358221220b8bb2f3aafba136d7d3437b24a4e1a04a858fbeea14e71db2bc8dcf99f1dce4564736f6c63430008110033",
  "linkReferences": {},
  "deployedLinkReferences": {}
}